:020000040000FA
:060000009FEF01F0120069
:0A00060001005C0300008000000010
:0400100020000000CC
:0C001400CB68070ECA6E80C0BBFF88C01E
:10002000BEFF946A0C0EBA6EBD6E1200010E9AC02D
:10003000E7FFE75204E0E846FE0BE706FCE1E81CB8
:10004000931600019A5190C014F091C015F005E08C
:10005000D89014361536E804FBE11450811246D8C6
:10006000000192518CC018F08DC019F005E0D890B5
:1000700018361936E804FBE1000194518EC01AF0DD
:100080008FC01BF005E0D8901A361B36E804FBE160
:1000900018501A10166E19501B10176E0001965149
:1000A00084C01CF085C01DF005E0D8901C361D36BC
:1000B000E804FBE116501C10146E17501D100001CF
:1000C000985186C01EF087C01FF005E0D8901E36FC
:1000D0001F36E804FBE114501E1082121200C70EF6
:1000E000D56E410EC26E0E0EC16E1200010E0001E1
:1000F0008219146E83C015F082511410846F8351DD
:100100001510856F82C086F083C087F08AC08CF09E
:100110008BC08DF0010E8A19146E8BC015F08A51B8
:1001200014108E6F8B5115108F6F1200D9CFE6FF10
:10013000E1CFD9FF0001800ED8809E55000E9F555B
:1001400005E39EC0AAF09FC0ABF010D0800ED8800F
:100150009E55000E9F550AE29EC0AAF09FC0ABF0CC
:100160000001FF0ED880AA57000EAB57FD0EDBCF63
:1001700014F0FE0EDBCF15F0800E145E000E155A43
:1001800014C008F015C009F0AAC00DF0ABC00EF005
:1001900071EC01F006C080F007C081F0070E0F0B74
:1001A000000105E0D89081338033E806FBE1020EC0
:1001B000086E096A9EC00DF09FC00EF071EC01F050
:1001C00000018051065C886F81510758896F88C093
:1001D000BEFF80C0BBFFE552E7CFD9FF12001ADF98
:1001E00025DF7DDFF250040B01E0010E146E010EDD
:1001F000145204E0E846FE0B1406FCE1F214F2E0AF
:10020000C250020B01E0010E146E010E145204E004
:10021000E846FE0B1406FCE1C2129E50400B01E0C2
:10022000010E146E010E145204E0E846FE0B140693
:10023000FCE19E14F2E0C450E66EE66A77DFE55218
:04024000E552D0D7DC
:0C024400060EF66E000EF76E000EF86E4F
:1002500000010900F550A56F0900F550A66F03E1F4
:10026000A56701D03DD00900F550A06F0900F550F9
:10027000A16F0900F550A26F09000900F550E96E61
:100280000900F550EA6E090009000900F550A36F56
:100290000900F550A46F09000900F6CFA7F0F7CFC9
:1002A000A8F0F8CFA9F0A0C0F6FFA1C0F7FFA2C048
:1002B000F8FF0001A35302E1A45307E00900F55041
:1002C000EE6EA307F8E2A407F9D7A7C0F6FFA8C00F
:1002D000F7FFA9C0F8FF0001A507000EA65BBFD776
:0202E00012000A
:0E02E20008C012F008500D02F4CF07F0F3CF61
:1002F00006F009500E02F4CF09F0F3CF08F00D021A
:10030000F3500726F4500822E86A092212500E0220
:0E031000F3500726F4500822E86A0922000C78
:02031E00000ECF
:10032000F36E00EE00F0060E01D81200EA6002D073
:0E033000EE6AFCD7F350E9601200EE6AFCD7CB
:02033E0015EEBA
:1003400000F025EE00F0F86A019C22EC01F0ADEC23
:0A03500001F0EFEC00F0FBD7120003
:02035A0012008F
:04035C00320001006A
:10036000000000003200010000000000000000005A
:0C03700003000400050003000F008000E3
:020000040030CA
:0100010004FA
:0100020010ED
:010003001EDE
:010005008575
:010006008475
:010008000FE8
:01000900C036
:01000A000FE6
:01000B00E014
:01000C000FE4
:01000D0040B2
:00000001FF
