:020000040000FA
:06000000B3EF01F0120055
:0A00060001008403000080000000E8
:0400100028000000C4
:0C001400CB68070ECA6E80C0BBFF88C01E
:10002000BEFF946A0C0EBA6EBD6E1200010E9AC02D
:10003000E7FFE75204E0E846FE0BE706FCE1E81CB8
:10004000931600019A5190C014F091C015F005E08C
:10005000D89014361536E804FBE11450811246D8C6
:10006000000192518CC018F08DC019F005E0D890B5
:1000700018361936E804FBE1000194518EC01AF0DD
:100080008FC01BF005E0D8901A361B36E804FBE160
:1000900018501A10166E19501B10176E0001965149
:1000A00084C01CF085C01DF005E0D8901C361D36BC
:1000B000E804FBE116501C10146E17501D100001CF
:1000C000985186C01EF087C01FF005E0D8901E36FC
:1000D0001F36E804FBE114501E1082121200C70EF6
:1000E000D56E410EC26E0E0EC16E1200010E0001E1
:1000F0008219146E83C015F082511410846F8351DD
:100100001510856F82C086F083C087F08AC08CF09E
:100110008BC08DF0010E8A19146E8BC015F08A51B8
:1001200014108E6F8B5115108F6F1200D9CFE6FF10
:10013000E1CFD9FF00019E51A45D9F51A55905E370
:100140009EC0A0F09FC0A1F00BD09E51A45D9F5116
:10015000A55906E29E51A25DA06F9F51A359A16FC0
:10016000FD0EDBCF14F0FE0EDBCF15F0A451145CB6
:10017000A551155813E3FD0EDBCF08F0FE0EDBCFC3
:1001800009F0A451085C166EA551095841D80850D1
:1001900000019E5D806F09509F5911D0FD0EDB500C
:1001A000A45D0001166EFE0EDB500001A559000192
:1001B0002FD800019E510824806F9F510920816F24
:1001C000A6C008F0A7C009F09EC00DF09FC00EF0B9
:1001D0006FEC01F000018051065C886F8151075877
:1001E000896F88C0BEFF80C0BBFFE552E7CFD9FF53
:1001F000120010DF1BDF73DFF2A4FED7C2849EACB7
:10020000FED7C450E66EE66A91DFE552E552F4D7B8
:10021000176E16C008F0096EA0C00DF0A1C00EF058
:100220006FEC01F006C014F007C015F006C008F02E
:1002300007C009F0A4C00DF0A5C00EF08DEF01F0CD
:10024000060EF66E000EF76E000EF86E0001090045
:10025000F550AD6F0900F550AE6F03E1AD6701D009
:100260003DD00900F550A86F0900F550A96F0900AD
:10027000F550AA6F09000900F550E96E0900F55024
:10028000EA6E090009000900F550AB6F0900F5504E
:10029000AC6F09000900F6CFAFF0F7CFB0F0F8CFA0
:1002A000B1F0A8C0F6FFA9C0F7FFAAC0F8FF00018F
:1002B000AB5302E1AC5307E00900F550EE6EAB071B
:1002C000F8E2AC07F9D7AFC0F6FFB0C0F7FFB1C096
:0E02D000F8FF0001AD07000EAE5BBFD71200B5
:0202DE0008C056
:1002E00012F008500D02F4CF07F0F3CF06F00950DA
:1002F0000E02F4CF09F0F3CF08F00D02F3500726F9
:10030000F4500822E86A092212500E02F350072620
:0A031000F4500822E86A0922000CEC
:06031A00056A046A100EE2
:10032000E76ED89008360936043605360D50045C61
:100330000E50055805E30D50045E0E50055A082A6C
:06034000E72EF0D71200C9
:0A034600000EF36E00EE00F0060E4C
:1003500001D81200EA6002D0EE6AFCD7F350E960DF
:060360001200EE6AFCD75A
:0A03660015EE00F025EE00F0F86A35
:10037000019C20EC01F0C1EC01F0F9EC00F0FBD79E
:02038000120069
:02038200120067
:0C038400FE00010000000000320001003B
:10039000000000000000000003000400050003004E
:0C03A0000F0050000000FF008000020071
:020000040030CA
:0100010024DA
:010002000CF1
:010003000EEE
:0100050001F9
:010006008475
:010008000FE8
:01000900C036
:01000A000FE6
:01000B00E014
:01000C000FE4
:01000D0040B2
:00000001FF
